{
  "_format": "hh-sol-artifact-1",
  "contractName": "EvidenceSystem",
  "sourceName": "contracts/EvidenceSystem.sol",
  "abi": [
    {
      "inputs": [
        {
          "internalType": "bytes32",
          "name": "",
          "type": "bytes32"
        }
      ],
      "name": "evidences",
      "outputs": [
        {
          "internalType": "string",
          "name": "ipfsHash",
          "type": "string"
        },
        {
          "internalType": "address",
          "name": "submitter",
          "type": "address"
        },
        {
          "internalType": "uint256",
          "name": "timestamp",
          "type": "uint256"
        }
      ],
      "stateMutability": "view",
      "type": "function"
    },
    {
      "inputs": [
        {
          "internalType": "string",
          "name": "_ipfsHash",
          "type": "string"
        }
      ],
      "name": "submitEvidence",
      "outputs": [],
      "stateMutability": "nonpayable",
      "type": "function"
    },
    {
      "inputs": [
        {
          "internalType": "bytes32",
          "name": "_evidenceId",
          "type": "bytes32"
        }
      ],
      "name": "verifyEvidence",
      "outputs": [
        {
          "components": [
            {
              "internalType": "string",
              "name": "ipfsHash",
              "type": "string"
            },
            {
              "internalType": "address",
              "name": "submitter",
              "type": "address"
            },
            {
              "internalType": "uint256",
              "name": "timestamp",
              "type": "uint256"
            }
          ],
          "internalType": "struct EvidenceSystem.Evidence",
          "name": "",
          "type": "tuple"
        }
      ],
      "stateMutability": "view",
      "type": "function"
    }
  ],
  "bytecode": "0x608060405234801561001057600080fd5b50610b0d806100206000396000f3fe608060405234801561001057600080fd5b50600436106100415760003560e01c80639136d41e14610046578063bac91e2e14610076578063d84c09de14610092575b600080fd5b610060600480360381019061005b91906105a3565b6100c4565b60405161006d91906108a1565b60405180910390f35b610090600480360381019061008b91906105cc565b61023b565b005b6100ac60048036038101906100a791906105a3565b61037a565b6040516100bb93929190610823565b60405180910390f35b6100cc61044c565b6000806000848152602001908152602001600020600201541415610125576040517f08c379a000000000000000000000000000000000000000000000000000000000815260040161011c90610861565b60405180910390fd5b600080838152602001908152602001600020604051806060016040529081600082018054610152906109e4565b80601f016020809104026020016040519081016040528092919081815260200182805461017e906109e4565b80156101cb5780601f106101a0576101008083540402835291602001916101cb565b820191906000526020600020905b8154815290600101906020018083116101ae57829003601f168201915b505050505081526020016001820160009054906101000a900473ffffffffffffffffffffffffffffffffffffffff1673ffffffffffffffffffffffffffffffffffffffff1673ffffffffffffffffffffffffffffffffffffffff1681526020016002820154815250509050919050565b6000813342604051602001610252939291906107ea565b604051602081830303815290604052805190602001209050600080600083815260200190815260200160002060020154146102c2576040517f08c379a00000000000000000000000000000000000000000000000000000000081526004016102b990610881565b60405180910390fd5b60405180606001604052808381526020013373ffffffffffffffffffffffffffffffffffffffff168152602001428152506000808381526020019081526020016000206000820151816000019080519060200190610321929190610483565b5060208201518160010160006101000a81548173ffffffffffffffffffffffffffffffffffffffff021916908373ffffffffffffffffffffffffffffffffffffffff160217905550604082015181600201559050505050565b600060205280600052604060002060009150905080600001805461039d906109e4565b80601f01602080910402602001604051908101604052809291908181526020018280546103c9906109e4565b80156104165780601f106103eb57610100808354040283529160200191610416565b820191906000526020600020905b8154815290600101906020018083116103f957829003601f168201915b5050505050908060010160009054906101000a900473ffffffffffffffffffffffffffffffffffffffff16908060020154905083565b604051806060016040528060608152602001600073ffffffffffffffffffffffffffffffffffffffff168152602001600081525090565b82805461048f906109e4565b90600052602060002090601f0160209004810192826104b157600085556104f8565b82601f106104ca57805160ff19168380011785556104f8565b828001600101855582156104f8579182015b828111156104f75782518255916020019190600101906104dc565b5b5090506105059190610509565b5090565b5b8082111561052257600081600090555060010161050a565b5090565b6000610539610534846108f4565b6108c3565b90508281526020810184848401111561055157600080fd5b61055c8482856109a2565b509392505050565b60008135905061057381610ac0565b92915050565b600082601f83011261058a57600080fd5b813561059a848260208601610526565b91505092915050565b6000602082840312156105b557600080fd5b60006105c384828501610564565b91505092915050565b6000602082840312156105de57600080fd5b600082013567ffffffffffffffff8111156105f857600080fd5b61060484828501610579565b91505092915050565b6106168161095c565b82525050565b6106258161095c565b82525050565b61063c6106378261095c565b610a16565b82525050565b600061064d82610924565b610657818561092f565b93506106678185602086016109b1565b61067081610aa2565b840191505092915050565b600061068682610924565b6106908185610940565b93506106a08185602086016109b1565b6106a981610aa2565b840191505092915050565b60006106bf82610924565b6106c98185610951565b93506106d98185602086016109b1565b80840191505092915050565b60006106f2601883610940565b91507f45766964656e636520646f6573206e6f742065786973742e00000000000000006000830152602082019050919050565b6000610732601883610940565b91507f45766964656e636520616c7265616479206578697374732e00000000000000006000830152602082019050919050565b600060608301600083015184820360008601526107828282610642565b9150506020830151610797602086018261060d565b5060408301516107aa60408601826107b5565b508091505092915050565b6107be81610998565b82525050565b6107cd81610998565b82525050565b6107e46107df82610998565b610a3a565b82525050565b60006107f682866106b4565b9150610802828561062b565b60148201915061081282846107d3565b602082019150819050949350505050565b6000606082019050818103600083015261083d818661067b565b905061084c602083018561061c565b61085960408301846107c4565b949350505050565b6000602082019050818103600083015261087a816106e5565b9050919050565b6000602082019050818103600083015261089a81610725565b9050919050565b600060208201905081810360008301526108bb8184610765565b905092915050565b6000604051905081810181811067ffffffffffffffff821117156108ea576108e9610a73565b5b8060405250919050565b600067ffffffffffffffff82111561090f5761090e610a73565b5b601f19601f8301169050602081019050919050565b600081519050919050565b600082825260208201905092915050565b600082825260208201905092915050565b600081905092915050565b600061096782610978565b9050919050565b6000819050919050565b600073ffffffffffffffffffffffffffffffffffffffff82169050919050565b6000819050919050565b82818337600083830152505050565b60005b838110156109cf5780820151818401526020810190506109b4565b838111156109de576000848401525b50505050565b600060028204905060018216806109fc57607f821691505b60208210811415610a1057610a0f610a44565b5b50919050565b6000610a2182610a28565b9050919050565b6000610a3382610ab3565b9050919050565b6000819050919050565b7f4e487b7100000000000000000000000000000000000000000000000000000000600052602260045260246000fd5b7f4e487b7100000000000000000000000000000000000000000000000000000000600052604160045260246000fd5b6000601f19601f8301169050919050565b60008160601b9050919050565b610ac98161096e565b8114610ad457600080fd5b5056fea264697066735822122008cb815a1765c839f49ecbc5bda3fe06866e1d13892dbead2655e8a16538f7cf64736f6c63430008000033",
  "linkReferences": {},
  "deployedLinkReferences": {}
}